:020000021000EC
:10F000000C9446F80C9465F80C9465F80C9465F82B
:10F010000C9465F80C9465F80C9465F80C9465F8FC
:10F020000C9465F80C9465F80C9465F80C9465F8EC
:10F030000C9465F80C9465F80C9465F80C9465F8DC
:10F040000C9465F80C9465F80C9465F80C9465F8CC
:10F050000C9465F80C9465F80C9465F80C9465F8BC
:10F060000C9465F80C9465F80C9465F80C9465F8AC
:10F070000C9465F80C9465F80C9465F80C9465F89C
:10F080000C9465F80C9465F80C9465F811241FBE77
:10F09000CFEFD0E1DEBFCDBF11E0A0E0B1E0E8E806
:10F0A000F9EF01E00BBF02C007900D92A230B1074B
:10F0B000D9F712E0A2E0B1E001C01D92AC30B10777
:10F0C000E1F70E947FF90C94C3FC0C9400F8982F90
:10F0D00080910101813051F0823009F008958091D2
:10F0E0009B0085FFFCCF90939C0008955D9BFECF15
:10F0F0009CB908951F93982F85958595859585953D
:10F100008A304CF0282F295A892F8F708A304CF082
:10F11000182F195A08C0282F205D892F8F708A3028
:10F12000BCF7182F105D822F0E9467F8812F0E9474
:10F1300067F81F910895EF92FF920F931F938091AC
:10F140000101813049F1823019F080E090E042C045
:10F15000EE24FF24870180919B0087FD17C008944F
:10F16000E11CF11C011D111D81E4E81682E4F80682
:10F170008FE0080780E0180770F3E0910301F09139
:10F180000401099580919B0087FFE9CF80919C0045
:10F19000992787FD90951EC0EE24FF2487015F9973
:10F1A00015C00894E11CF11C011D111D81E4E81635
:10F1B00082E4F8068FE0080780E0180780F3E0910A
:10F1C0000301F091040109955F9BEBCF8CB1992766
:10F1D00087FD90951F910F91FF90EF9008951F93D9
:10F1E0000E949BF8182F0E9467F8113634F01755CB
:10F1F000812F992787FD90950CC0103334F0105360
:10F20000812F992787FD909504C0812F992787FD2D
:10F2100090951F9108951F930E94EFF8182F0E9458
:10F22000EFF81295107F180F812F992787FD909581
:10F230001F910895982F209101010EC0213049F0AF
:10F24000223051F480919B0087FFFCCF80919C007D
:10F2500003C05F9BFECF8CB1915080F708951F9340
:10F26000182F0E949BF8803269F0809102018F5F15
:10F2700080930201853079F4E0910301F09104015B
:10F28000099509C084E10E9467F8812F0E9467F800
:10F2900080E10E9467F81F9108950E949BF88032D8
:10F2A00071F0809102018F5F80930201853009F037
:10F2B0000895E0910301F09104010995089584E116
:10F2C0000E9467F880E10E9467F80895482F14C0F3
:10F2D000979A28EE33E080E991E00197F1F7215009
:10F2E0003040C9F7979828EE33E080E991E0019724
:10F2F000F1F721503040C9F7415050F708950F936E
:10F300001F93CF93DF930000809161008F778093EC
:10F310006100809161008F7B809361008091620029
:10F3200080688093620080916200806480936200B4
:10F3300007990FC381E080930101E0E0F0E0E491E0
:10F34000EF3F09F4C1C280910101882309F4B7C2DB
:10F35000813009F4C1C2823009F4ECC28D5F8F9A0A
:10F360000E9466F90E949BF88033C9F18133D1F184
:10F37000803409F457C0813409F45DC0823409F443
:10F380006CC0853409F46FC0803549F1823539F19C
:10F39000813529F1853509F46CC0863509F474C0CE
:10F3A000843609F47DC0843709F4DDC0853709F45B
:10F3B00050C1863709F44DC0813209F463C1809190
:10F3C00002018F5F80930201853061F6E0910301B5
:10F3D000F091040109950E949BF8803339F60E9450
:10F3E0004DF9C0CF0E949BF8803249F784E10E941A
:10F3F00067F881E40E9467F886E50E9467F882E575
:10F400000E9467F880E20E9467F889E40E9467F82A
:10F4100083E50E9467F880E50E9467F880E10E941A
:10F4200067F8A0CF0E949BF88638C8F20E949BF82C
:10F430000E944DF997CF0E949BF8803809F401C1D2
:10F44000813809F41BC1823809F45AC1883909F49A
:10F45000FCC080E00E942FF985CF84E10E941AF958
:10F460000E944DF97FCF85E00E941AF90E944DF964
:10F4700079CF0E949BF8809305010E949BF88093AE
:10F4800006010E944DF96ECF0E949BF8803309F46B
:10F49000CBC083E00E941AF980E00E942FF962CF6E
:10F4A0000E949BF8809308020E949BF880930702B9
:10F4B00080910B028E7F80930B020E949BF8853413
:10F4C00009F435C18091070290910802892B81F0DF
:10F4D000C0E0D0E00E949BF8FE01E95FFE4F808310
:10F4E00021968091070290910802C817D90790F3DE
:10F4F0000E949BF8803209F062CF80910B0280FF5E
:10F5000028C1A0910501B0910601AA0FBB1FB093BD
:10F510000601A09305018091070290910802892BB2
:10F52000D9F020E030E0F901E95FFE4F8081082E3C
:10F530000E94B7FCA0910501B09106011196B0930D
:10F540000601A09305012F5F3F4F80910702909124
:10F5500008022817390738F384E10E9467F880E130
:10F560000E9467F8FFCE0E949BF8809308020E94D9
:10F570009BF880930702209105013091060137FD29
:10F58000E2C080910B028D7F80930B02220F331F0C
:10F5900030930601209305010E949BF8853409F4FD
:10F5A000CCC080910B028E7F80930B020E949BF84F
:10F5B000803209F0D7CE84E10E9467F8809107027B
:10F5C00090910802892B09F455C0C0E0D0E0A091C9
:10F5D0000501B091060115C0FD0184910E9467F8F4
:10F5E000A0910501B09106011196B0930601A09378
:10F5F000050121968091070290910802C817D9074A
:10F60000C8F580910B0280FD7FC081FFE5CFCD0161
:10F61000A0E0B0E080509040AF4FBF4FABBFFC01C7
:10F6200087910E9467F8DCCF0E949BF80E949BF8AC
:10F63000182F0E949BF8112309F4FEC0113009F421
:10F6400072C082E00E942FF98DCE83E00E942FF9D4
:10F6500089CE0E949BF8803209F0B1CE84E10E94ED
:10F6600067F88EE10E9467F887E90E9467F882E0F8
:10F670000E9467F880E10E9467F874CE81E00E94E2
:10F680002FF970CE0E949BF8813209F06BCE0E9458
:10F690009BF8813209F066CE8F9A979810920902F2
:10F6A0008AE00E9467F88DE00E9467F88AE30E9472
:10F6B00067F880E20E9467F80E949BF8182F0E946A
:10F6C00067F8143709F4BCC0123709F4C4C01737FF
:10F6D00009F4D8C0153759F0123609F409C11A36A1
:10F6E000F9F6E0910301F09104010995D9CF0E9448
:10F6F0009BF80E9467F80E949BF80E9467F8F7CF7A
:10F7000080E10E942FF92ECE0E94AFFC802D0E9436
:10F7100067F8A0910501B09106011196B09306011A
:10F72000A093050166CF87E90E942FF91BCE809137
:10F730000B02816080930B02C5CE80910B02816029
:10F7400080930B0233CF80910B02826080930B0277
:10F750001DCF8091060187FD7AC010920A02809128
:10F760000A028BBF8091050190910601880F991FB5
:10F7700090930601809305018091070280FF09C0E4
:10F78000809107029091080201969093080280935D
:10F790000702F894E199FECF1127E0910501F0915D
:10F7A0000601C7E0D1E08091070290910802103075
:10F7B00091F40091680001700130D9F303E00093E7
:10F7C0006800E8950091680001700130D9F301E10B
:10F7D00000936800E8950990199000916800017005
:10F7E0000130D9F301E000936800E89513951038D3
:10F7F00098F011270091680001700130D9F305E0FD
:10F8000000936800E8950091680001700130D9F319
:10F8100001E100936800E8953296029709F0C7CF9E
:10F82000103011F00296E5CF112484E10E9467F8B0
:10F8300080E10E9467F896CD8EE10E942FF992CD6B
:10F84000879938C0979A80E30E9467F829CF81E0B2
:10F8500080930A0284CF0E949BF80E9467F80E945E
:10F860000BF9082F0E940BF9182F8DE30E9467F8FF
:10F87000802F90E0F82FEE27E10FF11D80810E948C
:10F880007AF80ECF0E949BF80E9467F80E940BF94D
:10F89000082F0E940BF9182F0E949BF80E9467F80E
:10F8A0000E940BF9202F30E0F22FEE27E10FF11D1F
:10F8B0008083F6CE979881E30E9467F8F1CEE091BD
:10F8C0000301F0910401099580910101882309F059
:10F8D0003FCD81E08093010183E389B910929000CC
:10F8E0001BB886E08093950088E18AB984E037CD23
:10F8F00082E60E9467F885E70E9467F883E70E9426
:10F9000067F880E885BF10926D0010926C008091BE
:10F910000011809101118091021180910311E4E0A6
:10F92000F1E181913097E9F7E0E0F1E181913097E1
:10F93000D9F3F7CF83E38093990010929800109247
:10F940009B0086E080939D0088E180939A0085E08B
:10F9500006CD0699F2CC82E080930101EECCE199CC
:10F96000FECFBFBBAEBBE09A11960DB20895E199F0
:10F97000FECFBFBBAEBB0DBA11960FB6F894E29A9C
:08F98000E19A0FBE0895FFCFCC
:02F988008001FC
:040000031000F000F9
:00000001FF
