:103E00001F92CDB7DEB711248FE594E09EBF8DBF22
:103E100084B714BE81FFCAD085E08EBD82E08BB925
:103E200088E18AB986E880BD80E189B98EE0ABD0AF
:103E3000BF9A26E080E39CEF44E09DBD8CBD48BF67
:103E400008B602FEFDCF38B3305838BBA8952150D4
:103E5000A1F7A12CB12CFF24F39495E0E92E21E1E8
:103E6000D22E8AD0813471F487D0898390D0898111
:103E7000823809F41EC0813811F485E001C083E066
:103E800077D073C0823411F484E103C0853419F40F
:103E900085E085D06AC0853541F46ED0A82E6CD0FF
:103EA000B12CB82AAA0CBB1C5FC0863521F484E073
:103EB00076D080E0E5CF843609F03CC05DD05CD0A0
:103EC000C82E5AD0A11488E3B80620F483E0F50187
:103ED00087BFE89500E011E04FD0F80181938F0192
:103EE000CE12FACFA114F8E3BF0620F083E0F5016B
:103EF00087BFE8954CD007B600FCFDCFF501A0E0E8
:103F0000B1E08C9111962C91119790E0922B129622
:103F10000C01F7BEE89511243296A03881E0B8076D
:103F200081F7F501E7BEE89507B600FCFDCFD7BEE7
:103F3000E8951BC0843761F41FD01ED0182F1CD009
:103F400026D0F50185915F0113D01150D1F70DC036
:103F5000853731F41CD08EE10BD084E909D08FCFA6
:103F6000813511F488E00FD012D080E101D079CFF3
:103F70005D9BFECF8CB908955F9BFECF5C9901C01D
:103F8000A8958CB1089598E191BD81BD0895F4DFA5
:103F9000803219F088E0F7DFFFCF84E1E9CFCF93DB
:103FA000C82FEADFC150E9F7CF91F1CF282E80E08A
:083FB000EADFEE27FF27099468
:023FFE000005BC
:0400000300003E00BB
:00000001FF
